:020000040800F2
:100000007006002089010008ED020008E5020008E2
:10001000E902000845020008010300080000000092
:10002000000000000000000000000000F5020008D1
:100030004902000800000000F1020008F90200086F
:10004000A3010008A3010008A3010008A301000800
:10005000A3010008A3010008A3010008A3010008F0
:10006000A3010008A3010008A3010008A3010008E0
:10007000A3010008A3010008A3010008A3010008D0
:10008000A3010008A3010008A3010008A3010008C0
:10009000A3010008A3010008A3010008A3010008B0
:1000A000A3010008A3010008A3010008A3010008A0
:1000B000A3010008A3010008A3010008A301000890
:1000C000A3010008A3010008A3010008A301000880
:1000D000A3010008A3010008A3010008A301000870
:1000E000A3010008A3010008A301000800F002F822
:1000F00000F03AF80AA090E8000C82448344AAF188
:100100000107DA4501D100F02FF8AFF2090EBAE885
:100110000F0013F0010F18BFFB1A43F0010318473B
:100120003002000050020000103A24BF78C878C1A5
:10013000FAD8520724BF30C830C144BF04680C60ED
:10014000704700000023002400250026103A28BF35
:1001500078C1FBD8520728BF30C148BF0B60704739
:100160001FB51FBD10B510BD00F031F81146FFF7E7
:10017000F7FF00F0C7F800F04FF803B4FFF7F2FF05
:1001800003BC00F057F800000948804709480047C1
:10019000FEE7FEE7FEE7FEE7FEE7FEE7FEE7FEE737
:1001A000FEE7FEE704480549054A064B7047000094
:1001B000FD020008ED00000870000020700600201D
:1001C000700200207002002070477047704775462B
:1001D00000F02CF8AE4605006946534620F00700B3
:1001E000854618B020B5FFF7DDFFBDE820404FF091
:1001F00000064FF000074FF000084FF0000BAC4630
:10020000ACE8C009ACE8C009ACE8C009ACE8C0097A
:1002100021F007018D46704710B50446AFF300800A
:100220002046BDE81040FFF7A8BF00000048704717
:100230000800002001491820ABBEFEE7260002009E
:1002400070470000FEE700007047000083B0B0B5C3
:1002500081B00DF1140C8CE80E0005AACBB204326B
:10026000FF2B00922BD000F1040E4FF47F7C15E0A1
:10027000042C4FF00004056838BF01242C4099423B
:100280004FF000010346046088BF01211C68214330
:10029000196051680832CBB2FF2B0FD0CCB2137863
:1002A000082C0CEA8101E3D3DEF800402039CEF8B7
:1002B000004003FA01F17346E8E700BF009201B085
:1002C000BDE8B04003B0704740F2000040F2680162
:1002D000C2F20000C2F2000100780A68104408600F
:1002E00070470000FEE70000FEE70000FEE70000A8
:1002F0007047000070470000FFF7E6BF704700003E
:10030000FEE7000041F21800C4F20200016840F666
:100310000C44C4F2010441F008010160A4F10C0096
:100320000C210122FF23FFF791FF00BF206880F41A
:1003300080502060206880F480502060206880F425
:1003400080502060206880F480502060EEE700003C
:1003500070030008000000200800000028010008C9
:100360007803000808000020680600004401000827
:08037000010000001000000074
:04000005080000ED02
:00000001FF
